{
  "contractName": "Auth",
  "abi": [
    {
      "anonymous": false,
      "inputs": [
        {
          "indexed": false,
          "internalType": "string",
          "name": "username",
          "type": "string"
        },
        {
          "indexed": false,
          "internalType": "string",
          "name": "email",
          "type": "string"
        },
        {
          "indexed": false,
          "internalType": "string",
          "name": "password",
          "type": "string"
        },
        {
          "indexed": false,
          "internalType": "string",
          "name": "secret",
          "type": "string"
        }
      ],
      "name": "created",
      "type": "event"
    },
    {
      "inputs": [],
      "name": "userCount",
      "outputs": [
        {
          "internalType": "uint256",
          "name": "",
          "type": "uint256"
        }
      ],
      "stateMutability": "view",
      "type": "function",
      "constant": true
    },
    {
      "inputs": [
        {
          "internalType": "string",
          "name": "",
          "type": "string"
        }
      ],
      "name": "usersList",
      "outputs": [
        {
          "internalType": "string",
          "name": "username",
          "type": "string"
        },
        {
          "internalType": "string",
          "name": "email",
          "type": "string"
        },
        {
          "internalType": "string",
          "name": "password",
          "type": "string"
        },
        {
          "internalType": "string",
          "name": "secret",
          "type": "string"
        }
      ],
      "stateMutability": "view",
      "type": "function",
      "constant": true
    },
    {
      "inputs": [
        {
          "internalType": "string",
          "name": "_username",
          "type": "string"
        },
        {
          "internalType": "string",
          "name": "_email",
          "type": "string"
        },
        {
          "internalType": "string",
          "name": "_password",
          "type": "string"
        },
        {
          "internalType": "string",
          "name": "_secret",
          "type": "string"
        }
      ],
      "name": "createUser",
      "outputs": [],
      "stateMutability": "nonpayable",
      "type": "function"
    }
  ],
  "bytecode": "0x60806040526000805534801561001457600080fd5b50610b7f806100246000396000f3fe608060405234801561001057600080fd5b50600436106100415760003560e01c806307973ccf146100465780634cbce6ac146100645780636f7fcddb14610097575b600080fd5b61004e6100b3565b60405161005b919061042c565b60405180910390f35b61007e600480360381019061007991906105a1565b6100b9565b60405161008e9493929190610669565b60405180910390f35b6100b160048036038101906100ac91906106ca565b61031f565b005b60005481565b6001818051602081018201805184825260208301602085012081835280955050505050506000915090508060000180546100f2906107d0565b80601f016020809104026020016040519081016040528092919081815260200182805461011e906107d0565b801561016b5780601f106101405761010080835404028352916020019161016b565b820191906000526020600020905b81548152906001019060200180831161014e57829003601f168201915b505050505090806001018054610180906107d0565b80601f01602080910402602001604051908101604052809291908181526020018280546101ac906107d0565b80156101f95780601f106101ce576101008083540402835291602001916101f9565b820191906000526020600020905b8154815290600101906020018083116101dc57829003601f168201915b50505050509080600201805461020e906107d0565b80601f016020809104026020016040519081016040528092919081815260200182805461023a906107d0565b80156102875780601f1061025c57610100808354040283529160200191610287565b820191906000526020600020905b81548152906001019060200180831161026a57829003601f168201915b50505050509080600301805461029c906107d0565b80601f01602080910402602001604051908101604052809291908181526020018280546102c8906107d0565b80156103155780601f106102ea57610100808354040283529160200191610315565b820191906000526020600020905b8154815290600101906020018083116102f857829003601f168201915b5050505050905084565b60008081548092919061033190610830565b919050555060405180608001604052808581526020018481526020018381526020018281525060018460405161036791906108b4565b9081526020016040518091039020600082015181600001908161038a9190610a77565b5060208201518160010190816103a09190610a77565b5060408201518160020190816103b69190610a77565b5060608201518160030190816103cc9190610a77565b509050507f729c3611e0188635e097b9be6d5c9535e02d7568935834160ff9f9601a348580848484846040516104059493929190610669565b60405180910390a150505050565b6000819050919050565b61042681610413565b82525050565b6000602082019050610441600083018461041d565b92915050565b6000604051905090565b600080fd5b600080fd5b600080fd5b600080fd5b6000601f19601f8301169050919050565b7f4e487b7100000000000000000000000000000000000000000000000000000000600052604160045260246000fd5b6104ae82610465565b810181811067ffffffffffffffff821117156104cd576104cc610476565b5b80604052505050565b60006104e0610447565b90506104ec82826104a5565b919050565b600067ffffffffffffffff82111561050c5761050b610476565b5b61051582610465565b9050602081019050919050565b82818337600083830152505050565b600061054461053f846104f1565b6104d6565b9050828152602081018484840111156105605761055f610460565b5b61056b848285610522565b509392505050565b600082601f8301126105885761058761045b565b5b8135610598848260208601610531565b91505092915050565b6000602082840312156105b7576105b6610451565b5b600082013567ffffffffffffffff8111156105d5576105d4610456565b5b6105e184828501610573565b91505092915050565b600081519050919050565b600082825260208201905092915050565b60005b83811015610624578082015181840152602081019050610609565b60008484015250505050565b600061063b826105ea565b61064581856105f5565b9350610655818560208601610606565b61065e81610465565b840191505092915050565b600060808201905081810360008301526106838187610630565b905081810360208301526106978186610630565b905081810360408301526106ab8185610630565b905081810360608301526106bf8184610630565b905095945050505050565b600080600080608085870312156106e4576106e3610451565b5b600085013567ffffffffffffffff81111561070257610701610456565b5b61070e87828801610573565b945050602085013567ffffffffffffffff81111561072f5761072e610456565b5b61073b87828801610573565b935050604085013567ffffffffffffffff81111561075c5761075b610456565b5b61076887828801610573565b925050606085013567ffffffffffffffff81111561078957610788610456565b5b61079587828801610573565b91505092959194509250565b7f4e487b7100000000000000000000000000000000000000000000000000000000600052602260045260246000fd5b600060028204905060018216806107e857607f821691505b6020821081036107fb576107fa6107a1565b5b50919050565b7f4e487b7100000000000000000000000000000000000000000000000000000000600052601160045260246000fd5b600061083b82610413565b91507fffffffffffffffffffffffffffffffffffffffffffffffffffffffffffffffff820361086d5761086c610801565b5b600182019050919050565b600081905092915050565b600061088e826105ea565b6108988185610878565b93506108a8818560208601610606565b80840191505092915050565b60006108c08284610883565b915081905092915050565b60008190508160005260206000209050919050565b60006020601f8301049050919050565b600082821b905092915050565b60006008830261092d7fffffffffffffffffffffffffffffffffffffffffffffffffffffffffffffffff826108f0565b61093786836108f0565b95508019841693508086168417925050509392505050565b6000819050919050565b600061097461096f61096a84610413565b61094f565b610413565b9050919050565b6000819050919050565b61098e83610959565b6109a261099a8261097b565b8484546108fd565b825550505050565b600090565b6109b76109aa565b6109c2818484610985565b505050565b5b818110156109e6576109db6000826109af565b6001810190506109c8565b5050565b601f821115610a2b576109fc816108cb565b610a05846108e0565b81016020851015610a14578190505b610a28610a20856108e0565b8301826109c7565b50505b505050565b600082821c905092915050565b6000610a4e60001984600802610a30565b1980831691505092915050565b6000610a678383610a3d565b9150826002028217905092915050565b610a80826105ea565b67ffffffffffffffff811115610a9957610a98610476565b5b610aa382546107d0565b610aae8282856109ea565b600060209050601f831160018114610ae15760008415610acf578287015190505b610ad98582610a5b565b865550610b41565b601f198416610aef866108cb565b60005b82811015610b1757848901518255600182019150602085019450602081019050610af2565b86831015610b345784890151610b30601f891682610a3d565b8355505b6001600288020188555050505b50505050505056fea2646970667358221220dd4283148d1ded847e2e1152731e0a44d7b20dd4f747c96d73f7b64d6d3dbf0b64736f6c63430008130033",
  "immutableReferences": {},
  "source": "// SPDX-License-Identifier: MIT\npragma solidity >=0.4.22 <0.9.0;\n \ncontract Auth\n{   \n    uint public userCount = 0;\n \n    mapping(string => user) public usersList;\n \n     struct user\n     {\n       string username;\n       string email;\n       string password;\n       string secret;\n     }\n \n   event created(\n      string username,\n      string email,\n      string password,\n      string secret\n    );\n \n  function createUser(string memory _username,\n                      string memory _email,\n                      string memory _password,\n                      string memory _secret) public\n  {     \n      userCount++;\n      usersList[_email] = user(_username,\n                               _email,\n                               _password,\n                               _secret);\n      emit created(_username,\n                       _email,\n                       _password,\n                       _secret);\n    }\n}",
  "sourcePath": "/home/salt57/Projects/demo-auth-bkt-app/src/contracts/Auth.sol",
  "compiler": {
    "name": "solc",
    "version": "0.8.19+commit.7dd6d404.Emscripten.clang"
  },
  "schemaVersion": "3.4.13",
  "updatedAt": "2023-04-02T19:37:22.652Z",
  "networkType": "ethereum",
  "devdoc": {
    "kind": "dev",
    "methods": {},
    "version": 1
  },
  "userdoc": {
    "kind": "user",
    "methods": {},
    "version": 1
  }
}